{
  "_format": "hh-sol-artifact-1",
  "contractName": "PublicSocialMedia",
  "sourceName": "contracts/PublicSocialMedia.sol",
  "abi": [
    {
      "inputs": [],
      "stateMutability": "nonpayable",
      "type": "constructor"
    },
    {
      "anonymous": false,
      "inputs": [
        {
          "indexed": true,
          "internalType": "address",
          "name": "owner",
          "type": "address"
        },
        {
          "indexed": true,
          "internalType": "address",
          "name": "approved",
          "type": "address"
        },
        {
          "indexed": true,
          "internalType": "uint256",
          "name": "tokenId",
          "type": "uint256"
        }
      ],
      "name": "Approval",
      "type": "event"
    },
    {
      "anonymous": false,
      "inputs": [
        {
          "indexed": true,
          "internalType": "address",
          "name": "owner",
          "type": "address"
        },
        {
          "indexed": true,
          "internalType": "address",
          "name": "operator",
          "type": "address"
        },
        {
          "indexed": false,
          "internalType": "bool",
          "name": "approved",
          "type": "bool"
        }
      ],
      "name": "ApprovalForAll",
      "type": "event"
    },
    {
      "anonymous": false,
      "inputs": [
        {
          "indexed": false,
          "internalType": "uint256",
          "name": "id",
          "type": "uint256"
        },
        {
          "indexed": false,
          "internalType": "string",
          "name": "hash",
          "type": "string"
        },
        {
          "indexed": false,
          "internalType": "uint256",
          "name": "tipAmount",
          "type": "uint256"
        },
        {
          "indexed": false,
          "internalType": "address payable",
          "name": "author",
          "type": "address"
        }
      ],
      "name": "PostCreated",
      "type": "event"
    },
    {
      "anonymous": false,
      "inputs": [
        {
          "indexed": false,
          "internalType": "uint256",
          "name": "id",
          "type": "uint256"
        },
        {
          "indexed": false,
          "internalType": "string",
          "name": "hash",
          "type": "string"
        },
        {
          "indexed": false,
          "internalType": "uint256",
          "name": "tipAmount",
          "type": "uint256"
        },
        {
          "indexed": false,
          "internalType": "address payable",
          "name": "author",
          "type": "address"
        }
      ],
      "name": "PostTipped",
      "type": "event"
    },
    {
      "anonymous": false,
      "inputs": [
        {
          "indexed": true,
          "internalType": "address",
          "name": "from",
          "type": "address"
        },
        {
          "indexed": true,
          "internalType": "address",
          "name": "to",
          "type": "address"
        },
        {
          "indexed": true,
          "internalType": "uint256",
          "name": "tokenId",
          "type": "uint256"
        }
      ],
      "name": "Transfer",
      "type": "event"
    },
    {
      "inputs": [
        {
          "internalType": "address",
          "name": "to",
          "type": "address"
        },
        {
          "internalType": "uint256",
          "name": "tokenId",
          "type": "uint256"
        }
      ],
      "name": "approve",
      "outputs": [],
      "stateMutability": "nonpayable",
      "type": "function"
    },
    {
      "inputs": [
        {
          "internalType": "address",
          "name": "owner",
          "type": "address"
        }
      ],
      "name": "balanceOf",
      "outputs": [
        {
          "internalType": "uint256",
          "name": "",
          "type": "uint256"
        }
      ],
      "stateMutability": "view",
      "type": "function"
    },
    {
      "inputs": [],
      "name": "getAllPosts",
      "outputs": [
        {
          "components": [
            {
              "internalType": "uint256",
              "name": "id",
              "type": "uint256"
            },
            {
              "internalType": "string",
              "name": "hash",
              "type": "string"
            },
            {
              "internalType": "uint256",
              "name": "tipAmount",
              "type": "uint256"
            },
            {
              "internalType": "address payable",
              "name": "author",
              "type": "address"
            }
          ],
          "internalType": "struct PublicSocialMedia.Post[]",
          "name": "_posts",
          "type": "tuple[]"
        }
      ],
      "stateMutability": "view",
      "type": "function"
    },
    {
      "inputs": [
        {
          "internalType": "uint256",
          "name": "tokenId",
          "type": "uint256"
        }
      ],
      "name": "getApproved",
      "outputs": [
        {
          "internalType": "address",
          "name": "",
          "type": "address"
        }
      ],
      "stateMutability": "view",
      "type": "function"
    },
    {
      "inputs": [],
      "name": "getMyNFTs",
      "outputs": [
        {
          "internalType": "uint256[]",
          "name": "_ids",
          "type": "uint256[]"
        }
      ],
      "stateMutability": "view",
      "type": "function"
    },
    {
      "inputs": [
        {
          "internalType": "address",
          "name": "owner",
          "type": "address"
        },
        {
          "internalType": "address",
          "name": "operator",
          "type": "address"
        }
      ],
      "name": "isApprovedForAll",
      "outputs": [
        {
          "internalType": "bool",
          "name": "",
          "type": "bool"
        }
      ],
      "stateMutability": "view",
      "type": "function"
    },
    {
      "inputs": [
        {
          "internalType": "string",
          "name": "_tokenURI",
          "type": "string"
        }
      ],
      "name": "mint",
      "outputs": [
        {
          "internalType": "uint256",
          "name": "",
          "type": "uint256"
        }
      ],
      "stateMutability": "nonpayable",
      "type": "function"
    },
    {
      "inputs": [],
      "name": "name",
      "outputs": [
        {
          "internalType": "string",
          "name": "",
          "type": "string"
        }
      ],
      "stateMutability": "view",
      "type": "function"
    },
    {
      "inputs": [
        {
          "internalType": "uint256",
          "name": "tokenId",
          "type": "uint256"
        }
      ],
      "name": "ownerOf",
      "outputs": [
        {
          "internalType": "address",
          "name": "",
          "type": "address"
        }
      ],
      "stateMutability": "view",
      "type": "function"
    },
    {
      "inputs": [],
      "name": "postCount",
      "outputs": [
        {
          "internalType": "uint256",
          "name": "",
          "type": "uint256"
        }
      ],
      "stateMutability": "view",
      "type": "function"
    },
    {
      "inputs": [
        {
          "internalType": "uint256",
          "name": "",
          "type": "uint256"
        }
      ],
      "name": "posts",
      "outputs": [
        {
          "internalType": "uint256",
          "name": "id",
          "type": "uint256"
        },
        {
          "internalType": "string",
          "name": "hash",
          "type": "string"
        },
        {
          "internalType": "uint256",
          "name": "tipAmount",
          "type": "uint256"
        },
        {
          "internalType": "address payable",
          "name": "author",
          "type": "address"
        }
      ],
      "stateMutability": "view",
      "type": "function"
    },
    {
      "inputs": [
        {
          "internalType": "address",
          "name": "",
          "type": "address"
        }
      ],
      "name": "profiles",
      "outputs": [
        {
          "internalType": "uint256",
          "name": "",
          "type": "uint256"
        }
      ],
      "stateMutability": "view",
      "type": "function"
    },
    {
      "inputs": [
        {
          "internalType": "address",
          "name": "from",
          "type": "address"
        },
        {
          "internalType": "address",
          "name": "to",
          "type": "address"
        },
        {
          "internalType": "uint256",
          "name": "tokenId",
          "type": "uint256"
        }
      ],
      "name": "safeTransferFrom",
      "outputs": [],
      "stateMutability": "nonpayable",
      "type": "function"
    },
    {
      "inputs": [
        {
          "internalType": "address",
          "name": "from",
          "type": "address"
        },
        {
          "internalType": "address",
          "name": "to",
          "type": "address"
        },
        {
          "internalType": "uint256",
          "name": "tokenId",
          "type": "uint256"
        },
        {
          "internalType": "bytes",
          "name": "_data",
          "type": "bytes"
        }
      ],
      "name": "safeTransferFrom",
      "outputs": [],
      "stateMutability": "nonpayable",
      "type": "function"
    },
    {
      "inputs": [
        {
          "internalType": "address",
          "name": "operator",
          "type": "address"
        },
        {
          "internalType": "bool",
          "name": "approved",
          "type": "bool"
        }
      ],
      "name": "setApprovalForAll",
      "outputs": [],
      "stateMutability": "nonpayable",
      "type": "function"
    },
    {
      "inputs": [
        {
          "internalType": "uint256",
          "name": "_id",
          "type": "uint256"
        }
      ],
      "name": "setProfile",
      "outputs": [],
      "stateMutability": "nonpayable",
      "type": "function"
    },
    {
      "inputs": [
        {
          "internalType": "bytes4",
          "name": "interfaceId",
          "type": "bytes4"
        }
      ],
      "name": "supportsInterface",
      "outputs": [
        {
          "internalType": "bool",
          "name": "",
          "type": "bool"
        }
      ],
      "stateMutability": "view",
      "type": "function"
    },
    {
      "inputs": [],
      "name": "symbol",
      "outputs": [
        {
          "internalType": "string",
          "name": "",
          "type": "string"
        }
      ],
      "stateMutability": "view",
      "type": "function"
    },
    {
      "inputs": [
        {
          "internalType": "uint256",
          "name": "_id",
          "type": "uint256"
        }
      ],
      "name": "tipPostOwner",
      "outputs": [],
      "stateMutability": "payable",
      "type": "function"
    },
    {
      "inputs": [],
      "name": "tokenCount",
      "outputs": [
        {
          "internalType": "uint256",
          "name": "",
          "type": "uint256"
        }
      ],
      "stateMutability": "view",
      "type": "function"
    },
    {
      "inputs": [
        {
          "internalType": "uint256",
          "name": "tokenId",
          "type": "uint256"
        }
      ],
      "name": "tokenURI",
      "outputs": [
        {
          "internalType": "string",
          "name": "",
          "type": "string"
        }
      ],
      "stateMutability": "view",
      "type": "function"
    },
    {
      "inputs": [
        {
          "internalType": "address",
          "name": "from",
          "type": "address"
        },
        {
          "internalType": "address",
          "name": "to",
          "type": "address"
        },
        {
          "internalType": "uint256",
          "name": "tokenId",
          "type": "uint256"
        }
      ],
      "name": "transferFrom",
      "outputs": [],
      "stateMutability": "nonpayable",
      "type": "function"
    },
    {
      "inputs": [
        {
          "internalType": "string",
          "name": "_postHash",
          "type": "string"
        }
      ],
      "name": "uploadPost",
      "outputs": [],
      "stateMutability": "nonpayable",
      "type": "function"
    }
  ],
  "bytecode": "0x60806040523480156200001157600080fd5b506040518060400160405280601181526020017f5075626c6963536f6369616c4d656469610000000000000000000000000000008152506040518060400160405280600381526020017f50534d0000000000000000000000000000000000000000000000000000000000815250816000908051906020019062000096929190620000b8565b508060019080519060200190620000af929190620000b8565b505050620001cd565b828054620000c69062000168565b90600052602060002090601f016020900481019282620000ea576000855562000136565b82601f106200010557805160ff191683800117855562000136565b8280016001018555821562000136579182015b828111156200013557825182559160200191906001019062000118565b5b50905062000145919062000149565b5090565b5b80821115620001645760008160009055506001016200014a565b5090565b600060028204905060018216806200018157607f821691505b602082108114156200019857620001976200019e565b5b50919050565b7f4e487b7100000000000000000000000000000000000000000000000000000000600052602260045260246000fd5b613e7880620001dd6000396000f3fe6080604052600436106101405760003560e01c806370a08231116100b6578063bbe156271161006f578063bbe1562714610471578063bdd05adb146104ae578063c87b56dd146104d7578063d6313c0614610514578063d85d3d2714610530578063e985e9c51461056d57610140565b806370a082311461036357806385d3cb37146103a057806395d89b41146103c95780639f181b5e146103f4578063a22cb4651461041f578063b88d4fde1461044857610140565b806317906c2e1161010857806317906c2e1461025357806323b872dd1461027e57806330561100146102a757806342842e0e146102d2578063629cb2e4146102fb5780636352211e1461032657610140565b806301ffc9a71461014557806306fdde0314610182578063081812fc146101ad578063095ea7b3146101ea5780630b1e7f8314610213575b600080fd5b34801561015157600080fd5b5061016c60048036038101906101679190612922565b6105aa565b6040516101799190613033565b60405180910390f35b34801561018e57600080fd5b5061019761068c565b6040516101a4919061304e565b60405180910390f35b3480156101b957600080fd5b506101d460048036038101906101cf91906129b5565b61071e565b6040516101e19190612f88565b60405180910390f35b3480156101f657600080fd5b50610211600480360381019061020c91906128e6565b6107a3565b005b34801561021f57600080fd5b5061023a600480360381019061023591906129b5565b6108bb565b60405161024a9493929190613377565b60405180910390f35b34801561025f57600080fd5b50610268610993565b6040516102759190613310565b60405180910390f35b34801561028a57600080fd5b506102a560048036038101906102a091906127e0565b610999565b005b3480156102b357600080fd5b506102bc6109f9565b6040516102c99190612fef565b60405180910390f35b3480156102de57600080fd5b506102f960048036038101906102f491906127e0565b610c06565b005b34801561030757600080fd5b50610310610c26565b60405161031d9190613011565b60405180910390f35b34801561033257600080fd5b5061034d600480360381019061034891906129b5565b610d74565b60405161035a9190612f88565b60405180910390f35b34801561036f57600080fd5b5061038a6004803603810190610385919061277b565b610e26565b6040516103979190613310565b60405180910390f35b3480156103ac57600080fd5b506103c760048036038101906103c291906129b5565b610ede565b005b3480156103d557600080fd5b506103de610f9b565b6040516103eb919061304e565b60405180910390f35b34801561040057600080fd5b5061040961102d565b6040516104169190613310565b60405180910390f35b34801561042b57600080fd5b50610446600480360381019061044191906128aa565b611033565b005b34801561045457600080fd5b5061046f600480360381019061046a919061282f565b611049565b005b34801561047d57600080fd5b506104986004803603810190610493919061277b565b6110ab565b6040516104a59190613310565b60405180910390f35b3480156104ba57600080fd5b506104d560048036038101906104d09190612974565b6110c3565b005b3480156104e357600080fd5b506104fe60048036038101906104f991906129b5565b611277565b60405161050b919061304e565b60405180910390f35b61052e600480360381019061052991906129b5565b6113c9565b005b34801561053c57600080fd5b5061055760048036038101906105529190612974565b6116eb565b6040516105649190613310565b60405180910390f35b34801561057957600080fd5b50610594600480360381019061058f91906127a4565b611732565b6040516105a19190613033565b60405180910390f35b60007f80ac58cd000000000000000000000000000000000000000000000000000000007bffffffffffffffffffffffffffffffffffffffffffffffffffffffff1916827bffffffffffffffffffffffffffffffffffffffffffffffffffffffff1916148061067557507f5b5e139f000000000000000000000000000000000000000000000000000000007bffffffffffffffffffffffffffffffffffffffffffffffffffffffff1916827bffffffffffffffffffffffffffffffffffffffffffffffffffffffff1916145b806106855750610684826117c6565b5b9050919050565b60606000805461069b906136a5565b80601f01602080910402602001604051908101604052809291908181526020018280546106c7906136a5565b80156107145780601f106106e957610100808354040283529160200191610714565b820191906000526020600020905b8154815290600101906020018083116106f757829003601f168201915b5050505050905090565b600061072982611830565b610768576040517f08c379a000000000000000000000000000000000000000000000000000000000815260040161075f90613230565b60405180910390fd5b6004600083815260200190815260200160002060009054906101000a900473ffffffffffffffffffffffffffffffffffffffff169050919050565b60006107ae82610d74565b90508073ffffffffffffffffffffffffffffffffffffffff168373ffffffffffffffffffffffffffffffffffffffff16141561081f576040517f08c379a000000000000000000000000000000000000000000000000000000000815260040161081690613290565b60405180910390fd5b8073ffffffffffffffffffffffffffffffffffffffff1661083e61189c565b73ffffffffffffffffffffffffffffffffffffffff16148061086d575061086c8161086761189c565b611732565b5b6108ac576040517f08c379a00000000000000000000000000000000000000000000000000000000081526004016108a390613150565b60405180910390fd5b6108b683836118a4565b505050565b60096020528060005260406000206000915090508060000154908060010180546108e4906136a5565b80601f0160208091040260200160405190810160405280929190818152602001828054610910906136a5565b801561095d5780601f106109325761010080835404028352916020019161095d565b820191906000526020600020905b81548152906001019060200180831161094057829003601f168201915b5050505050908060020154908060030160009054906101000a900473ffffffffffffffffffffffffffffffffffffffff16905084565b60085481565b6109aa6109a461189c565b8261195d565b6109e9576040517f08c379a00000000000000000000000000000000000000000000000000000000081526004016109e0906132b0565b60405180910390fd5b6109f4838383611a3b565b505050565b606060085467ffffffffffffffff811115610a3d577f4e487b7100000000000000000000000000000000000000000000000000000000600052604160045260246000fd5b604051908082528060200260200182016040528015610a7657816020015b610a63612561565b815260200190600190039081610a5b5790505b50905060005b8151811015610c025760096000600183610a969190613510565b815260200190815260200160002060405180608001604052908160008201548152602001600182018054610ac9906136a5565b80601f0160208091040260200160405190810160405280929190818152602001828054610af5906136a5565b8015610b425780601f10610b1757610100808354040283529160200191610b42565b820191906000526020600020905b815481529060010190602001808311610b2557829003601f168201915b50505050508152602001600282015481526020016003820160009054906101000a900473ffffffffffffffffffffffffffffffffffffffff1673ffffffffffffffffffffffffffffffffffffffff1673ffffffffffffffffffffffffffffffffffffffff1681525050828281518110610be4577f4e487b7100000000000000000000000000000000000000000000000000000000600052603260045260246000fd5b60200260200101819052508080610bfa90613708565b915050610a7c565b5090565b610c2183838360405180602001604052806000815250611049565b505050565b6060610c3133610e26565b67ffffffffffffffff811115610c70577f4e487b7100000000000000000000000000000000000000000000000000000000600052604160045260246000fd5b604051908082528060200260200182016040528015610c9e5781602001602082028036833780820191505090505b509050600080600754905060005b81811015610d6e573373ffffffffffffffffffffffffffffffffffffffff16610ce0600183610cdb9190613510565b610d74565b73ffffffffffffffffffffffffffffffffffffffff161415610d5b57600181610d099190613510565b848480610d1590613708565b955081518110610d4e577f4e487b7100000000000000000000000000000000000000000000000000000000600052603260045260246000fd5b6020026020010181815250505b8080610d6690613708565b915050610cac565b50505090565b6000806002600084815260200190815260200160002060009054906101000a900473ffffffffffffffffffffffffffffffffffffffff169050600073ffffffffffffffffffffffffffffffffffffffff168173ffffffffffffffffffffffffffffffffffffffff161415610e1d576040517f08c379a0000000000000000000000000000000000000000000000000000000008152600401610e1490613190565b60405180910390fd5b80915050919050565b60008073ffffffffffffffffffffffffffffffffffffffff168273ffffffffffffffffffffffffffffffffffffffff161415610e97576040517f08c379a0000000000000000000000000000000000000000000000000000000008152600401610e8e90613170565b60405180910390fd5b600360008373ffffffffffffffffffffffffffffffffffffffff1673ffffffffffffffffffffffffffffffffffffffff168152602001908152602001600020549050919050565b3373ffffffffffffffffffffffffffffffffffffffff16610efe82610d74565b73ffffffffffffffffffffffffffffffffffffffff1614610f54576040517f08c379a0000000000000000000000000000000000000000000000000000000008152600401610f4b906132f0565b60405180910390fd5b80600a60003373ffffffffffffffffffffffffffffffffffffffff1673ffffffffffffffffffffffffffffffffffffffff1681526020019081526020016000208190555050565b606060018054610faa906136a5565b80601f0160208091040260200160405190810160405280929190818152602001828054610fd6906136a5565b80156110235780601f10610ff857610100808354040283529160200191611023565b820191906000526020600020905b81548152906001019060200180831161100657829003601f168201915b5050505050905090565b60075481565b61104561103e61189c565b8383611ca2565b5050565b61105a61105461189c565b8361195d565b611099576040517f08c379a0000000000000000000000000000000000000000000000000000000008152600401611090906132b0565b60405180910390fd5b6110a584848484611e0f565b50505050565b600a6020528060005260406000206000915090505481565b60006110ce33610e26565b1161110e576040517f08c379a0000000000000000000000000000000000000000000000000000000008152600401611105906132d0565b60405180910390fd5b6000815111611152576040517f08c379a000000000000000000000000000000000000000000000000000000000815260040161114990613270565b60405180910390fd5b6008600081548092919061116590613708565b919050555060405180608001604052806008548152602001828152602001600081526020013373ffffffffffffffffffffffffffffffffffffffff168152506009600060085481526020019081526020016000206000820151816000015560208201518160010190805190602001906111df92919061259f565b506040820151816002015560608201518160030160006101000a81548173ffffffffffffffffffffffffffffffffffffffff021916908373ffffffffffffffffffffffffffffffffffffffff1602179055509050507fc66336337a24e513f909b3b25119854dba8385d51307dbc7d31d1b2805e19c7e6008548260003360405161126c949392919061332b565b60405180910390a150565b606061128282611830565b6112c1576040517f08c379a00000000000000000000000000000000000000000000000000000000081526004016112b890613210565b60405180910390fd5b60006006600084815260200190815260200160002080546112e1906136a5565b80601f016020809104026020016040519081016040528092919081815260200182805461130d906136a5565b801561135a5780601f1061132f5761010080835404028352916020019161135a565b820191906000526020600020905b81548152906001019060200180831161133d57829003601f168201915b50505050509050600061136b611e6b565b90506000815114156113815781925050506113c4565b6000825111156113b657808260405160200161139e929190612f64565b604051602081830303815290604052925050506113c4565b6113bf84611e82565b925050505b919050565b6000811180156113db57506008548111155b61141a576040517f08c379a0000000000000000000000000000000000000000000000000000000008152600401611411906131d0565b60405180910390fd5b60006009600083815260200190815260200160002060405180608001604052908160008201548152602001600182018054611454906136a5565b80601f0160208091040260200160405190810160405280929190818152602001828054611480906136a5565b80156114cd5780601f106114a2576101008083540402835291602001916114cd565b820191906000526020600020905b8154815290600101906020018083116114b057829003601f168201915b50505050508152602001600282015481526020016003820160009054906101000a900473ffffffffffffffffffffffffffffffffffffffff1673ffffffffffffffffffffffffffffffffffffffff1673ffffffffffffffffffffffffffffffffffffffff168152505090503373ffffffffffffffffffffffffffffffffffffffff16816060015173ffffffffffffffffffffffffffffffffffffffff1614156115ab576040517f08c379a00000000000000000000000000000000000000000000000000000000081526004016115a290613130565b60405180910390fd5b806060015173ffffffffffffffffffffffffffffffffffffffff166108fc349081150290604051600060405180830381858888f193505050501580156115f5573d6000803e3d6000fd5b5034816040018181516116089190613510565b91508181525050806009600084815260200190815260200160002060008201518160000155602082015181600101908051906020019061164992919061259f565b506040820151816002015560608201518160030160006101000a81548173ffffffffffffffffffffffffffffffffffffffff021916908373ffffffffffffffffffffffffffffffffffffffff1602179055509050507f20988fe475351e75813672abada1dddb7ac67cbbeb81e61e1160b8329d8cdf1c828260200151836040015184606001516040516116df9493929190613377565b60405180910390a15050565b60006007600081548092919061170090613708565b919050555061171133600754611f29565b61171d60075483611f47565b611728600754610ede565b6007549050919050565b6000600560008473ffffffffffffffffffffffffffffffffffffffff1673ffffffffffffffffffffffffffffffffffffffff16815260200190815260200160002060008373ffffffffffffffffffffffffffffffffffffffff1673ffffffffffffffffffffffffffffffffffffffff16815260200190815260200160002060009054906101000a900460ff16905092915050565b60007f01ffc9a7000000000000000000000000000000000000000000000000000000007bffffffffffffffffffffffffffffffffffffffffffffffffffffffff1916827bffffffffffffffffffffffffffffffffffffffffffffffffffffffff1916149050919050565b60008073ffffffffffffffffffffffffffffffffffffffff166002600084815260200190815260200160002060009054906101000a900473ffffffffffffffffffffffffffffffffffffffff1673ffffffffffffffffffffffffffffffffffffffff1614159050919050565b600033905090565b816004600083815260200190815260200160002060006101000a81548173ffffffffffffffffffffffffffffffffffffffff021916908373ffffffffffffffffffffffffffffffffffffffff160217905550808273ffffffffffffffffffffffffffffffffffffffff1661191783610d74565b73ffffffffffffffffffffffffffffffffffffffff167f8c5be1e5ebec7d5bd14f71427d1e84f3dd0314c0f7b2291e5b200ac8c7c3b92560405160405180910390a45050565b600061196882611830565b6119a7576040517f08c379a000000000000000000000000000000000000000000000000000000000815260040161199e90613110565b60405180910390fd5b60006119b283610d74565b90508073ffffffffffffffffffffffffffffffffffffffff168473ffffffffffffffffffffffffffffffffffffffff161480611a2157508373ffffffffffffffffffffffffffffffffffffffff16611a098461071e565b73ffffffffffffffffffffffffffffffffffffffff16145b80611a325750611a318185611732565b5b91505092915050565b8273ffffffffffffffffffffffffffffffffffffffff16611a5b82610d74565b73ffffffffffffffffffffffffffffffffffffffff1614611ab1576040517f08c379a0000000000000000000000000000000000000000000000000000000008152600401611aa890613090565b60405180910390fd5b600073ffffffffffffffffffffffffffffffffffffffff168273ffffffffffffffffffffffffffffffffffffffff161415611b21576040517f08c379a0000000000000000000000000000000000000000000000000000000008152600401611b18906130d0565b60405180910390fd5b611b2c838383611fbb565b611b376000826118a4565b6001600360008573ffffffffffffffffffffffffffffffffffffffff1673ffffffffffffffffffffffffffffffffffffffff1681526020019081526020016000206000828254611b879190613597565b925050819055506001600360008473ffffffffffffffffffffffffffffffffffffffff1673ffffffffffffffffffffffffffffffffffffffff1681526020019081526020016000206000828254611bde9190613510565b92505081905550816002600083815260200190815260200160002060006101000a81548173ffffffffffffffffffffffffffffffffffffffff021916908373ffffffffffffffffffffffffffffffffffffffff160217905550808273ffffffffffffffffffffffffffffffffffffffff168473ffffffffffffffffffffffffffffffffffffffff167fddf252ad1be2c89b69c2b068fc378daa952ba7f163c4a11628f55a4df523b3ef60405160405180910390a4611c9d838383611fc0565b505050565b8173ffffffffffffffffffffffffffffffffffffffff168373ffffffffffffffffffffffffffffffffffffffff161415611d11576040517f08c379a0000000000000000000000000000000000000000000000000000000008152600401611d08906130f0565b60405180910390fd5b80600560008573ffffffffffffffffffffffffffffffffffffffff1673ffffffffffffffffffffffffffffffffffffffff16815260200190815260200160002060008473ffffffffffffffffffffffffffffffffffffffff1673ffffffffffffffffffffffffffffffffffffffff16815260200190815260200160002060006101000a81548160ff0219169083151502179055508173ffffffffffffffffffffffffffffffffffffffff168373ffffffffffffffffffffffffffffffffffffffff167f17307eab39ab6107e8899845ad3d59bd9653f200f220920489ca2b5937696c3183604051611e029190613033565b60405180910390a3505050565b611e1a848484611a3b565b611e2684848484611fc5565b611e65576040517f08c379a0000000000000000000000000000000000000000000000000000000008152600401611e5c90613070565b60405180910390fd5b50505050565b606060405180602001604052806000815250905090565b6060611e8d82611830565b611ecc576040517f08c379a0000000000000000000000000000000000000000000000000000000008152600401611ec390613250565b60405180910390fd5b6000611ed6611e6b565b90506000815111611ef65760405180602001604052806000815250611f21565b80611f008461215c565b604051602001611f11929190612f64565b6040516020818303038152906040525b915050919050565b611f43828260405180602001604052806000815250612309565b5050565b611f5082611830565b611f8f576040517f08c379a0000000000000000000000000000000000000000000000000000000008152600401611f86906131b0565b60405180910390fd5b80600660008481526020019081526020016000209080519060200190611fb692919061259f565b505050565b505050565b505050565b6000611fe68473ffffffffffffffffffffffffffffffffffffffff16612364565b1561214f578373ffffffffffffffffffffffffffffffffffffffff1663150b7a0261200f61189c565b8786866040518563ffffffff1660e01b81526004016120319493929190612fa3565b602060405180830381600087803b15801561204b57600080fd5b505af192505050801561207c57506040513d601f19601f82011682018060405250810190612079919061294b565b60015b6120ff573d80600081146120ac576040519150601f19603f3d011682016040523d82523d6000602084013e6120b1565b606091505b506000815114156120f7576040517f08c379a00000000000000000000000000000000000000000000000000000000081526004016120ee90613070565b60405180910390fd5b805181602001fd5b63150b7a0260e01b7bffffffffffffffffffffffffffffffffffffffffffffffffffffffff1916817bffffffffffffffffffffffffffffffffffffffffffffffffffffffff191614915050612154565b600190505b949350505050565b606060008214156121a4576040518060400160405280600181526020017f30000000000000000000000000000000000000000000000000000000000000008152509050612304565b600082905060005b600082146121d65780806121bf90613708565b915050600a826121cf9190613566565b91506121ac565b60008167ffffffffffffffff811115612218577f4e487b7100000000000000000000000000000000000000000000000000000000600052604160045260246000fd5b6040519080825280601f01601f19166020018201604052801561224a5781602001600182028036833780820191505090505b5090505b600085146122fd576001826122639190613597565b9150600a856122729190613751565b603061227e9190613510565b60f81b8183815181106122ba577f4e487b7100000000000000000000000000000000000000000000000000000000600052603260045260246000fd5b60200101907effffffffffffffffffffffffffffffffffffffffffffffffffffffffffffff1916908160001a905350600a856122f69190613566565b945061224e565b8093505050505b919050565b6123138383612387565b6123206000848484611fc5565b61235f576040517f08c379a000000000000000000000000000000000000000000000000000000000815260040161235690613070565b60405180910390fd5b505050565b6000808273ffffffffffffffffffffffffffffffffffffffff163b119050919050565b600073ffffffffffffffffffffffffffffffffffffffff168273ffffffffffffffffffffffffffffffffffffffff1614156123f7576040517f08c379a00000000000000000000000000000000000000000000000000000000081526004016123ee906131f0565b60405180910390fd5b61240081611830565b15612440576040517f08c379a0000000000000000000000000000000000000000000000000000000008152600401612437906130b0565b60405180910390fd5b61244c60008383611fbb565b6001600360008473ffffffffffffffffffffffffffffffffffffffff1673ffffffffffffffffffffffffffffffffffffffff168152602001908152602001600020600082825461249c9190613510565b92505081905550816002600083815260200190815260200160002060006101000a81548173ffffffffffffffffffffffffffffffffffffffff021916908373ffffffffffffffffffffffffffffffffffffffff160217905550808273ffffffffffffffffffffffffffffffffffffffff16600073ffffffffffffffffffffffffffffffffffffffff167fddf252ad1be2c89b69c2b068fc378daa952ba7f163c4a11628f55a4df523b3ef60405160405180910390a461255d60008383611fc0565b5050565b6040518060800160405280600081526020016060815260200160008152602001600073ffffffffffffffffffffffffffffffffffffffff1681525090565b8280546125ab906136a5565b90600052602060002090601f0160209004810192826125cd5760008555612614565b82601f106125e657805160ff1916838001178555612614565b82800160010185558215612614579182015b828111156126135782518255916020019190600101906125f8565b5b5090506126219190612625565b5090565b5b8082111561263e576000816000905550600101612626565b5090565b6000612655612650846133e8565b6133c3565b90508281526020810184848401111561266d57600080fd5b612678848285613663565b509392505050565b600061269361268e84613419565b6133c3565b9050828152602081018484840111156126ab57600080fd5b6126b6848285613663565b509392505050565b6000813590506126cd81613de6565b92915050565b6000813590506126e281613dfd565b92915050565b6000813590506126f781613e14565b92915050565b60008151905061270c81613e14565b92915050565b600082601f83011261272357600080fd5b8135612733848260208601612642565b91505092915050565b600082601f83011261274d57600080fd5b813561275d848260208601612680565b91505092915050565b60008135905061277581613e2b565b92915050565b60006020828403121561278d57600080fd5b600061279b848285016126be565b91505092915050565b600080604083850312156127b757600080fd5b60006127c5858286016126be565b92505060206127d6858286016126be565b9150509250929050565b6000806000606084860312156127f557600080fd5b6000612803868287016126be565b9350506020612814868287016126be565b925050604061282586828701612766565b9150509250925092565b6000806000806080858703121561284557600080fd5b6000612853878288016126be565b9450506020612864878288016126be565b935050604061287587828801612766565b925050606085013567ffffffffffffffff81111561289257600080fd5b61289e87828801612712565b91505092959194509250565b600080604083850312156128bd57600080fd5b60006128cb858286016126be565b92505060206128dc858286016126d3565b9150509250929050565b600080604083850312156128f957600080fd5b6000612907858286016126be565b925050602061291885828601612766565b9150509250929050565b60006020828403121561293457600080fd5b6000612942848285016126e8565b91505092915050565b60006020828403121561295d57600080fd5b600061296b848285016126fd565b91505092915050565b60006020828403121561298657600080fd5b600082013567ffffffffffffffff8111156129a057600080fd5b6129ac8482850161273c565b91505092915050565b6000602082840312156129c757600080fd5b60006129d584828501612766565b91505092915050565b60006129ea8383612ee3565b905092915050565b60006129fe8383612f46565b60208301905092915050565b612a13816135dd565b82525050565b612a22816135dd565b82525050565b612a31816135cb565b82525050565b6000612a428261346a565b612a4c81856134b0565b935083602082028501612a5e8561344a565b8060005b85811015612a9a5784840389528151612a7b85826129de565b9450612a8683613496565b925060208a01995050600181019050612a62565b50829750879550505050505092915050565b6000612ab782613475565b612ac181856134c1565b9350612acc8361345a565b8060005b83811015612afd578151612ae488826129f2565b9750612aef836134a3565b925050600181019050612ad0565b5085935050505092915050565b612b13816135ef565b82525050565b6000612b2482613480565b612b2e81856134d2565b9350612b3e818560208601613672565b612b478161383e565b840191505092915050565b612b5b81613651565b82525050565b6000612b6c8261348b565b612b7681856134e3565b9350612b86818560208601613672565b612b8f8161383e565b840191505092915050565b6000612ba58261348b565b612baf81856134f4565b9350612bbf818560208601613672565b612bc88161383e565b840191505092915050565b6000612bde8261348b565b612be88185613505565b9350612bf8818560208601613672565b80840191505092915050565b6000612c116032836134f4565b9150612c1c8261384f565b604082019050919050565b6000612c346025836134f4565b9150612c3f8261389e565b604082019050919050565b6000612c57601c836134f4565b9150612c62826138ed565b602082019050919050565b6000612c7a6024836134f4565b9150612c8582613916565b604082019050919050565b6000612c9d6019836134f4565b9150612ca882613965565b602082019050919050565b6000612cc0602c836134f4565b9150612ccb8261398e565b604082019050919050565b6000612ce36021836134f4565b9150612cee826139dd565b604082019050919050565b6000612d066038836134f4565b9150612d1182613a2c565b604082019050919050565b6000612d29602a836134f4565b9150612d3482613a7b565b604082019050919050565b6000612d4c6029836134f4565b9150612d5782613aca565b604082019050919050565b6000612d6f602e836134f4565b9150612d7a82613b19565b604082019050919050565b6000612d92600f836134f4565b9150612d9d82613b68565b602082019050919050565b6000612db56020836134f4565b9150612dc082613b91565b602082019050919050565b6000612dd86031836134f4565b9150612de382613bba565b604082019050919050565b6000612dfb602c836134f4565b9150612e0682613c09565b604082019050919050565b6000612e1e602f836134f4565b9150612e2982613c58565b604082019050919050565b6000612e416021836134f4565b9150612e4c82613ca7565b604082019050919050565b6000612e646021836134f4565b9150612e6f82613cf6565b604082019050919050565b6000612e876031836134f4565b9150612e9282613d45565b604082019050919050565b6000612eaa601c836134f4565b9150612eb582613d94565b602082019050919050565b6000612ecd601b836134f4565b9150612ed882613dbd565b602082019050919050565b6000608083016000830151612efb6000860182612f46565b5060208301518482036020860152612f138282612b61565b9150506040830151612f286040860182612f46565b506060830151612f3b6060860182612a0a565b508091505092915050565b612f4f81613647565b82525050565b612f5e81613647565b82525050565b6000612f708285612bd3565b9150612f7c8284612bd3565b91508190509392505050565b6000602082019050612f9d6000830184612a28565b92915050565b6000608082019050612fb86000830187612a28565b612fc56020830186612a28565b612fd26040830185612f55565b8181036060830152612fe48184612b19565b905095945050505050565b600060208201905081810360008301526130098184612a37565b905092915050565b6000602082019050818103600083015261302b8184612aac565b905092915050565b60006020820190506130486000830184612b0a565b92915050565b600060208201905081810360008301526130688184612b9a565b905092915050565b6000602082019050818103600083015261308981612c04565b9050919050565b600060208201905081810360008301526130a981612c27565b9050919050565b600060208201905081810360008301526130c981612c4a565b9050919050565b600060208201905081810360008301526130e981612c6d565b9050919050565b6000602082019050818103600083015261310981612c90565b9050919050565b6000602082019050818103600083015261312981612cb3565b9050919050565b6000602082019050818103600083015261314981612cd6565b9050919050565b6000602082019050818103600083015261316981612cf9565b9050919050565b6000602082019050818103600083015261318981612d1c565b9050919050565b600060208201905081810360008301526131a981612d3f565b9050919050565b600060208201905081810360008301526131c981612d62565b9050919050565b600060208201905081810360008301526131e981612d85565b9050919050565b6000602082019050818103600083015261320981612da8565b9050919050565b6000602082019050818103600083015261322981612dcb565b9050919050565b6000602082019050818103600083015261324981612dee565b9050919050565b6000602082019050818103600083015261326981612e11565b9050919050565b6000602082019050818103600083015261328981612e34565b9050919050565b600060208201905081810360008301526132a981612e57565b9050919050565b600060208201905081810360008301526132c981612e7a565b9050919050565b600060208201905081810360008301526132e981612e9d565b9050919050565b6000602082019050818103600083015261330981612ec0565b9050919050565b60006020820190506133256000830184612f55565b92915050565b60006080820190506133406000830187612f55565b81810360208301526133528186612b9a565b90506133616040830185612b52565b61336e6060830184612a19565b95945050505050565b600060808201905061338c6000830187612f55565b818103602083015261339e8186612b9a565b90506133ad6040830185612f55565b6133ba6060830184612a19565b95945050505050565b60006133cd6133de565b90506133d982826136d7565b919050565b6000604051905090565b600067ffffffffffffffff8211156134035761340261380f565b5b61340c8261383e565b9050602081019050919050565b600067ffffffffffffffff8211156134345761343361380f565b5b61343d8261383e565b9050602081019050919050565b6000819050602082019050919050565b6000819050602082019050919050565b600081519050919050565b600081519050919050565b600081519050919050565b600081519050919050565b6000602082019050919050565b6000602082019050919050565b600082825260208201905092915050565b600082825260208201905092915050565b600082825260208201905092915050565b600082825260208201905092915050565b600082825260208201905092915050565b600081905092915050565b600061351b82613647565b915061352683613647565b9250827fffffffffffffffffffffffffffffffffffffffffffffffffffffffffffffffff0382111561355b5761355a613782565b5b828201905092915050565b600061357182613647565b915061357c83613647565b92508261358c5761358b6137b1565b5b828204905092915050565b60006135a282613647565b91506135ad83613647565b9250828210156135c0576135bf613782565b5b828203905092915050565b60006135d682613627565b9050919050565b60006135e882613627565b9050919050565b60008115159050919050565b60007fffffffff0000000000000000000000000000000000000000000000000000000082169050919050565b600073ffffffffffffffffffffffffffffffffffffffff82169050919050565b6000819050919050565b600061365c82613647565b9050919050565b82818337600083830152505050565b60005b83811015613690578082015181840152602081019050613675565b8381111561369f576000848401525b50505050565b600060028204905060018216806136bd57607f821691505b602082108114156136d1576136d06137e0565b5b50919050565b6136e08261383e565b810181811067ffffffffffffffff821117156136ff576136fe61380f565b5b80604052505050565b600061371382613647565b91507fffffffffffffffffffffffffffffffffffffffffffffffffffffffffffffffff82141561374657613745613782565b5b600182019050919050565b600061375c82613647565b915061376783613647565b925082613777576137766137b1565b5b828206905092915050565b7f4e487b7100000000000000000000000000000000000000000000000000000000600052601160045260246000fd5b7f4e487b7100000000000000000000000000000000000000000000000000000000600052601260045260246000fd5b7f4e487b7100000000000000000000000000000000000000000000000000000000600052602260045260246000fd5b7f4e487b7100000000000000000000000000000000000000000000000000000000600052604160045260246000fd5b6000601f19601f8301169050919050565b7f4552433732313a207472616e7366657220746f206e6f6e20455243373231526560008201527f63656976657220696d706c656d656e7465720000000000000000000000000000602082015250565b7f4552433732313a207472616e736665722066726f6d20696e636f72726563742060008201527f6f776e6572000000000000000000000000000000000000000000000000000000602082015250565b7f4552433732313a20746f6b656e20616c7265616479206d696e74656400000000600082015250565b7f4552433732313a207472616e7366657220746f20746865207a65726f2061646460008201527f7265737300000000000000000000000000000000000000000000000000000000602082015250565b7f4552433732313a20617070726f766520746f2063616c6c657200000000000000600082015250565b7f4552433732313a206f70657261746f7220717565727920666f72206e6f6e657860008201527f697374656e7420746f6b656e0000000000000000000000000000000000000000602082015250565b7f596f752063616e206e6f7420676976652074697020746f20796f757220706f7360008201527f7400000000000000000000000000000000000000000000000000000000000000602082015250565b7f4552433732313a20617070726f76652063616c6c6572206973206e6f74206f7760008201527f6e6572206e6f7220617070726f76656420666f7220616c6c0000000000000000602082015250565b7f4552433732313a2062616c616e636520717565727920666f7220746865207a6560008201527f726f206164647265737300000000000000000000000000000000000000000000602082015250565b7f4552433732313a206f776e657220717565727920666f72206e6f6e657869737460008201527f656e7420746f6b656e0000000000000000000000000000000000000000000000602082015250565b7f45524337323155524953746f726167653a2055524920736574206f66206e6f6e60008201527f6578697374656e7420746f6b656e000000000000000000000000000000000000602082015250565b7f4944206973206e6f742076616c69640000000000000000000000000000000000600082015250565b7f4552433732313a206d696e7420746f20746865207a65726f2061646472657373600082015250565b7f45524337323155524953746f726167653a2055524920717565727920666f722060008201527f6e6f6e6578697374656e7420746f6b656e000000000000000000000000000000602082015250565b7f4552433732313a20617070726f76656420717565727920666f72206e6f6e657860008201527f697374656e7420746f6b656e0000000000000000000000000000000000000000602082015250565b7f4552433732314d657461646174613a2055524920717565727920666f72206e6f60008201527f6e6578697374656e7420746f6b656e0000000000000000000000000000000000602082015250565b7f48617368206f662074686520706f73742063616e206e6f7420626520656d707460008201527f7900000000000000000000000000000000000000000000000000000000000000602082015250565b7f4552433732313a20617070726f76616c20746f2063757272656e74206f776e6560008201527f7200000000000000000000000000000000000000000000000000000000000000602082015250565b7f4552433732313a207472616e736665722063616c6c6572206973206e6f74206f60008201527f776e6572206e6f7220617070726f766564000000000000000000000000000000602082015250565b7f4b696e646c792063726561746520616e204e465420746f20706f737400000000600082015250565b7f4e46542073686f756c64206265206f776e656420627920796f752e0000000000600082015250565b613def816135cb565b8114613dfa57600080fd5b50565b613e06816135ef565b8114613e1157600080fd5b50565b613e1d816135fb565b8114613e2857600080fd5b50565b613e3481613647565b8114613e3f57600080fd5b5056fea26469706673582212209b775aa65cae707e1b101b2a5392a8c0ac78f291600470baf98c605db10cc4b564736f6c63430008040033",
  "linkReferences": {},
  "deployedLinkReferences": {}
}